:100000000C94B4010C94FD010C94D1010C94D10119
:100010000C94D1010C94D1010C94D1010C94D10118
:100020000C94D1010C94D1010C94D1010C94D10108
:100030000C94D1010C94D1010C94D1010C94D101F8
:100040000C94D1010C94D1010C94D1010C94D101E8
:100050000C94D1010C94D1010C94D1010C94D101D8
:100060000C94D1010C94D1010C94D1010C94D101C8
:10007000000000000000000000065F5F06000000B6
:100080000007070007070000147F7F147F7F14001C
:10009000242E6B6B3A120000466630180C66620024
:1000A000307A4F5D377A48000407030000000000F3
:1000B000001C3E63410000000041633E1C00000044
:1000C000082A3E1C1C3E2A0808083E3E080800007C
:1000D00000A0E06000000000080808080808000010
:1000E00000006060000000006030180C0603010092
:1000F0003E7F594D7F3E000042427F7F40400000DE
:10010000627359496F660000226349497F360000D7
:10011000181C16137F7F1000276745457D390000A6
:100120003C7E4B4979300000036371190F070000D2
:10013000367F49497F360000064F49693F1E00005F
:1001400000006C6C0000000000A0EC6C00000000DF
:10015000081C366341000000141414141414000029
:10016000004163361C080000020351590F060000CD
:100170003E7F415D5D1F1E007C7E13137E7C000070
:10018000417F7F49497F36001C3E63414163220025
:10019000417F7F41637F1C00417F7F495D41630058
:1001A000417F7F491D0103001C3E63415173720072
:1001B0007F7F08087F7F000000417F7F41000000B3
:1001C000307040417F3F0100417F7F081C77630012
:1001D000417F7F41406070007F7F060C067F7F007B
:1001E0007F7F060C187F7F001C3E6341633E1C002E
:1001F000417F7F49090F06001E3F21717F5E00008D
:10020000417F7F19396F460026674D597B320000C8
:1002100003417F7F410300007F7F40407F7F0000DC
:100220001F3F60603F1F00007F7F3018307F7F00DE
:1002300063771C081C776300074F78784F0700002E
:100240006773594D47637100007F7F414100000093
:100250000103060C183060000041417F7F00000060
:10026000080C0603060C0800808080808080808057
:100270000000030704000000207454543C78400040
:10028000413F7F44447C3800387C44446C28000063
:10029000307848493F7F4000387C54545C18000057
:1002A000487E7F490302000098BCA4A4F87C0400A7
:1002B000417F7F08047C780000447D7D4000000081
:1002C00040C484FD7D000000417F7F10386C4400F5
:1002D00000417F7F400000007C7C0C180C7C780083
:1002E0007C7C04047C780000387C44447C3800002A
:1002F00084FCF8A4243C1800183C24A4F8FC8400D6
:10030000447C78441C180000485C54547424000059
:1003100000043E7F442400003C7C40403C7C400084
:100320001C3C60603C1C00003C7C6030607C3C00FD
:10033000446C3810386C44009CBCA0A0FC7C0000CD
:100340004C64745C4C64000008083E774141000036
:1003500000000077770000004141773E0808000068
:10036000020301030203010011241FBECFEFD4E0FA
:10037000DEBFCDBF12E0A0E0B1E0E8ECFAE002C0E1
:1003800005900D92A032B107D9F722E0A0E2B2E0C9
:1003900001C01D92A832B207E1F70E9409030C9434
:1003A00062050C94000081B3806281BB8FB58360CD
:1003B0008FBD8EB588618EBD8FB58F778FBD8FB5A0
:1003C00080648FBD8EB58B7F8EBD8EB58D7F8EBDCB
:1003D0008EB581608EBD8FB5877F8FBD1BBC81E0E0
:1003E0008ABD81B38F7E81BB0895E0E0F4E1108285
:1003F000608170818081908108951F920F920FB665
:100400000F9211248F939F9381E090E090932102AB
:10041000809320029F918F910F900FBE0F901F909D
:100420001895CF930E94DD03C82F882331F082E115
:1004300091E00E943205C1E02DC063E08AE20E9493
:100440008B0361EB89E20E948B0365E088E20E94E6
:100450008B0340E060EE8FE30E94B70343E063E06C
:100460008BE20E94B70340E06CE18BE20E94B7038D
:10047000F89481B38E7F81BB82B3816082BB85B7E4
:10048000826085BF8BB780648BBF789481E391E0F5
:100490000E9432058C2FCF910895EF92FF920F9317
:1004A0001F93CF938C01F8940E94AA03847090E06C
:1004B000F801228141E050E0293010F440E050E0A2
:1004C0007C01E42AF52AE114F10461F5F801608168
:1004D000718176956795769567957695679581E3B1
:1004E0000E948B03F80160816295660F607E82E353
:1004F0000E948B03F801628185E30E948B03C0E0B8
:1005000008C0F801EC0FF11D638186E30E948B03A4
:10051000CF5FF8019281C917A0F381E80E94A1037F
:10052000789403C0EE24E394F12CC701CF911F917E
:100530000F91FF90EF900895CF93DF93CDB7DEB783
:100540002B970FB6F894DEBF0FBECDBF21E030E091
:100550003A83298392E09B838C836D83CE0101963D
:100560000E944D022B960FB6F894DEBF0FBECDBF92
:10057000DF91CF9108950E94F501362F272F632F29
:1005800070E0822F90E00895A62F90E0BC01621BDE
:10059000730B84E6869FF001879FF00D1124FF23E3
:1005A00014F4E158FF4FBF01660F672F661F770BEA
:1005B000EA2FF0E0DF01A41BB50BE4E6EA9F90010F
:1005C000EB9F300D1124332314F421583F4FC90100
:1005D000880F892F881F990B0895603171055CF48D
:1005E000613F7F4F54F0803191054CF4813F9F4F24
:1005F00044F483E0089581E0089580E0089582E066
:10060000089584E0089596B386B3869581709170BD
:1006100008958FE190E00E9412050E942B050E9430
:100620000B050E94D3010E94BB024B015C010E949A
:100630006A040E9411020E94FC03F12C0E94F50141
:10064000862F672FA50194010E94C402C62FD82FC0
:100650000E94ED02182F0E940303082F123049F464
:10066000FF2039F0FA940E94FC038F2D0E9414049D
:100670000AC0133041F4F11006C0F3940E94FC0349
:100680008F2D0E941404002329F10E94490460E088
:1006900080E00E94AF0421E0F21671F0F21638F00B
:1006A00082E0F81671F093E0F91681F013C08BEA3E
:1006B00091E00E94D7040EC086EB91E00E94D7041F
:1006C00009C081EC91E00E94D70404C08CEC91E059
:1006D0000E94D7046D2F8C2F0E949C022FEF8FEF6A
:1006E00092E0215080409040E1F700C000C0A6CFCA
:1006F000CF93C82F88B38F7E88BB83E00E94060506
:100700008C2F0E94060580E00E94060598B3906138
:1007100098BBCF910895CF93DF93D82FC62F88B37E
:100720008F7E88BB82E00E9406058D2F0E94060501
:100730008C2F0E94060588B3806188BBDF91CF9122
:10074000089598B39F7E98BB0E94060588B3806188
:1007500088BB089588B38F7E88BB80EA0E94060517
:1007600080E00E94060598B3906198BB08951F939E
:10077000CF93DF93182FD62FC42F88B38F7E88BBDB
:1007800085E00E940605812F0E9406058D2F0E949C
:1007900006058C2F0E94060588B3806188BBDF9117
:1007A000CF911F91089588B38F7E88BB80EC0E9403
:1007B000060588B3806188BB08950E94FC040E94EE
:1007C000D3038CEC94E00197F1F700C000008EE0B9
:1007D0000E947803807E803831F087ED91E00E949E
:1007E000320581E0089580E008958CE30E94B8040A
:1007F0008DE20E94B8040895CF930E944904C0E09E
:100800000FC060E08C2F0E94AF04EC2FF0E0EE0FE1
:10081000FF1FE050FF4F808191810E94D704CF5F7E
:10082000C23078F3CF910895CF93DF93D82FC0E0F3
:1008300012C0CD1307C06EE68C2F0E94AF040E9439
:10084000F50308C06EE68C2F0E94AF048BE092E0A7
:100850000E94D704CF5FC23060F3DF91CF9108953B
:10086000809300100895809300120895883018F442
:1008700080550E9430040895CF93C82F8F700E9436
:1008800030048C2F82958F7080610E943004CF914C
:1008900008950F931F93CF93DF9300E010E012C0F1
:1008A000802F0E94360480E00E943C04C0E0D0E02B
:1008B00004C080E00E9433042196C038D105CCF3F7
:1008C0000F5F1F4F083011055CF3DF91CF911F912F
:1008D0000F9108958EEA0E94300481EA0E9430044C
:1008E0008AED0E94300482E10E94300488EC0E946C
:1008F000300488EA0E9430048FE30E94300485EDC2
:100900000E94300480E80E94300481E80E94300494
:1009100080E50E94300489ED0E94300481E20E944B
:10092000300480E20E94300482E00E9430048BEDAB
:100930000E94300480E30E9430048DEA0E9430045B
:1009400080E00E94300484EA0E94300486EA0E941B
:1009500030048FEA0E9430040E9449040895CF9326
:10096000C62F0E9436048C2F0E943C04CF9108951C
:100970001F93CF93DF9310EE180FC0E0D0E010C0AC
:10098000E12FF0E0EE0FFF1FEE0FFF1FEE0FFF1F36
:10099000EC0FFD1FE059FF4F84910E943304219614
:1009A000C830D1056CF3DF91CF911F910895EF927C
:1009B000FF920F931F93CF93DF937C01FC01019073
:1009C0000020E9F731978F01081B190BC0E0D0E038
:1009D00007C0F701EC0FFD1F80810E94B80421962B
:1009E000C8019927C817D907A4F3DF91CF911F91A8
:1009F0000F91FF90EF90089587B3806B87BB87B30B
:100A00008F7B87BB8DB181658DB908958FB9779B39
:100A1000FECF8FB1089585B7806885BF80B78062AB
:100A200080BF089590BD89B988E18AB98EE880BDFC
:100A300008955D9BFECF8CB90895CF93C82F8A305F
:100A400019F48DE00E9419058C2F0E94190580E091
:100A500090E0CF91089584E091E0909325028093F7
:100A6000240208950F931F93CF93DF93E091240204
:100A7000F0912502238121FF1BC08C01D0E0C0E052
:100A8000F80181918F016091240270912502DB01B0
:100A90001896ED91FC911997882331F00995892BCF
:100AA00079F3DFEFCFEFECCF8AE00995892B19F0CE
:100AB0008FEF9FEF02C08D2F9C2FDF91CF911F9161
:080AC0000F910895F894FFCF97
:100AC8000E02170200000002000000001D050000D1
:100AD80000004D43503235313520696E69746961C3
:100AE8006C697A6174696F6E206661696C656421EE
:100AF800004D43503235313520696E697469616C37
:100B0800697A656420696E206E6F726D616C206D04
:100B18006F646500646174612070656E64696E67F6
:100B28002043414E5F72656365697665006F75693C
:100B38006F756900726573756C74203D2030782577
:100B48003032580A0049643A202564200D0A004CC6
:100B5800656E6774683A202564200D0A0064617424
:100B6800613A202573200D0A0D0A0043686F6963F6
:100B780065203A20310043686F696365203A203266
:100B88000043686F696365203A20330043686F69E2
:100B98006365203A203400204D43503235313520EA
:100BA8006973204E4F5420696E20636F6E666967C3
:100BB80075726174696F6E206D6F6465206166740B
:100BC80065722072657365742021002020004F70C3
:100BD80074696F6E2031004F7074696F6E20320037
:00000001FF
